:060000000A128A110C280F
:10000800FE00030EF2000A08F3000A128A118D2876
:100018000A128A110F2883010A128A1113280A1258
:100028008A1140200A128A110A128A11BC200A1267
:100038008A110A128A11CB200A128A110130F5009E
:1000480075088312031389071A30F600F830F50093
:10005800F50B2C28F60B2C28000083120313061826
:10006800362837281D2802308316031396006300AC
:100078001D280A128A110C280130831603178800DC
:100088008901013083160313850007308600870134
:100098008312031387018316031388018312031342
:1000A80088018501860183160313890183120313CE
:1000B80089018316031381130730950070308F046C
:1000C8000F148B15063096000B170C178B170800AA
:1000D800831203138618712872287628063083162F
:1000E80003139600831206197A287B288C280708A0
:1000F800F00015300A128A11A7200A128A11153049
:100108000A128A11D9200A128A118312031388004D
:1001180008000B1C9028912897280A128A116C2035
:100128000A128A110B10831203130C1F9C289D2896
:10013800A0281E0887000C1373088A00720E83001B
:10014800FE0E7E0E0900F1007108831203178D0060
:1001580070088C00831603178C130C1555308D000E
:10016800AA308D008C146300831603170C11080045
:10017800831603139F131F129F12831203131F0862
:100188003F3980389F00C3309F051F140800831231
:1001980003139F18D028D128D8282130F400F40B55
:1001A800D328831203139F140800F00070088312E9
:1001B80003178D00831603178C130C14831203176F
:0401C8000C08080017
:08400000FF3FFF3FFF3FFF3FC0
:04400E00D420FF3F7C
:00000001FF
