:060000000A128A110C280F
:10000800FE00030EF0000A08F1000A128A113928CE
:100018000A128A110F2883010A128A115328013003
:10002800831603178800890101308316031385009E
:100038000730860087018312031387018501860133
:10004800831603138901831203138901831603138B
:1000580081130730950070308F040F148B178B15A0
:10006800073096000B170C170800831203130C1F98
:100078003E283F2842281E0887000C130B1C4528E1
:1000880046284C280A128A117B200A128A110B1062
:1000980071088A00700E8300FE0E7E0E09000A1297
:1000A8008A1113200A128A110A128A116C200A1264
:1000B8008A110A128A1188200A128A110130F30063
:1000C80073088312031389075D280A128A110C2802
:1000D800831603139F131F129F12831203131F0803
:1000E8003F3980389F00C3309F051F1408008312D2
:1000F80003138618802881288228872806188528CF
:100108008628872863000800831203139F188D2808
:100118008E288F289F142130F200F20B91280800B6
:08400000FF3FFF3FFF3FFF3FC0
:04400E00D420FF3F7C
:00000001FF
