:060000000A128A110C280F
:10000800FE00030EF2000A08F3000A128A116E2895
:100018000A128A110F2883010A128A11882883126A
:1000280003130618182819282228061C1C281D281E
:10003800192863000230831603139600831286186A
:10004800262827282B2807308316031396008312A7
:1000580006192F28302841280708F00015300A1201
:100068008A11A1200A128A1115300A128A11D32086
:100078000A128A11831203138800080001308316BC
:1000880003178800890101308316031385000730A0
:1000980086008701831203138701831603138801DF
:1000A80083120313880185018601831603138901CE
:1000B80083120313890183160313811307309500F4
:1000C80070308F040F148B178B15073096000B17A1
:1000D8000C1708000B1C7128722878280B100A12BC
:1000E8008A1113200A128A11831203130C1F7D2808
:1000F8007E2881281E0887000C1373088A00720E58
:100108008300FE0E7E0E09000A128A1142200A128E
:100118008A110A128A11B6200A128A110A128A1141
:10012800C5200A128A110130F500750883120313DD
:10013800890792280A128A110C28F1007108831283
:1001480003178D0070088C00831603178C130C1589
:1001580055308D00AA308D008C1463008316031768
:100168000C110800831603139F131F129F1283128A
:1001780003131F083F3980389F00C3309F051F14A1
:100188000800831203139F18CA28CB28D2282130CD
:10019800F400F40BCD28831203139F140800F00019
:1001A8007008831203178D00831603178C130C1421
:0801B800831203170C08080074
:08400000FF3FFF3FFF3FFF3FC0
:04400E00D420FF3F7C
:00000001FF
